{
  "contractName": "BurnableToken",
  "abi": [
    {
      "inputs": [
        {
          "internalType": "address",
          "name": "gateway_",
          "type": "address"
        },
        {
          "internalType": "uint256",
          "name": "initialSupply",
          "type": "uint256"
        }
      ],
      "stateMutability": "nonpayable",
      "type": "constructor"
    },
    {
      "inputs": [
        {
          "internalType": "address",
          "name": "spender",
          "type": "address"
        },
        {
          "internalType": "uint256",
          "name": "allowance",
          "type": "uint256"
        },
        {
          "internalType": "uint256",
          "name": "needed",
          "type": "uint256"
        }
      ],
      "name": "ERC20InsufficientAllowance",
      "type": "error"
    },
    {
      "inputs": [
        {
          "internalType": "address",
          "name": "sender",
          "type": "address"
        },
        {
          "internalType": "uint256",
          "name": "balance",
          "type": "uint256"
        },
        {
          "internalType": "uint256",
          "name": "needed",
          "type": "uint256"
        }
      ],
      "name": "ERC20InsufficientBalance",
      "type": "error"
    },
    {
      "inputs": [
        {
          "internalType": "address",
          "name": "approver",
          "type": "address"
        }
      ],
      "name": "ERC20InvalidApprover",
      "type": "error"
    },
    {
      "inputs": [
        {
          "internalType": "address",
          "name": "receiver",
          "type": "address"
        }
      ],
      "name": "ERC20InvalidReceiver",
      "type": "error"
    },
    {
      "inputs": [
        {
          "internalType": "address",
          "name": "sender",
          "type": "address"
        }
      ],
      "name": "ERC20InvalidSender",
      "type": "error"
    },
    {
      "inputs": [
        {
          "internalType": "address",
          "name": "spender",
          "type": "address"
        }
      ],
      "name": "ERC20InvalidSpender",
      "type": "error"
    },
    {
      "inputs": [],
      "name": "InvalidAddress",
      "type": "error"
    },
    {
      "inputs": [],
      "name": "NotApprovedByGateway",
      "type": "error"
    },
    {
      "anonymous": false,
      "inputs": [
        {
          "indexed": true,
          "internalType": "address",
          "name": "owner",
          "type": "address"
        },
        {
          "indexed": true,
          "internalType": "address",
          "name": "spender",
          "type": "address"
        },
        {
          "indexed": false,
          "internalType": "uint256",
          "name": "value",
          "type": "uint256"
        }
      ],
      "name": "Approval",
      "type": "event"
    },
    {
      "anonymous": false,
      "inputs": [
        {
          "indexed": false,
          "internalType": "uint256",
          "name": "amount",
          "type": "uint256"
        }
      ],
      "name": "TokensBurned",
      "type": "event"
    },
    {
      "anonymous": false,
      "inputs": [
        {
          "indexed": true,
          "internalType": "address",
          "name": "from",
          "type": "address"
        },
        {
          "indexed": true,
          "internalType": "address",
          "name": "to",
          "type": "address"
        },
        {
          "indexed": false,
          "internalType": "uint256",
          "name": "value",
          "type": "uint256"
        }
      ],
      "name": "Transfer",
      "type": "event"
    },
    {
      "inputs": [
        {
          "internalType": "address",
          "name": "owner",
          "type": "address"
        },
        {
          "internalType": "address",
          "name": "spender",
          "type": "address"
        }
      ],
      "name": "allowance",
      "outputs": [
        {
          "internalType": "uint256",
          "name": "",
          "type": "uint256"
        }
      ],
      "stateMutability": "view",
      "type": "function",
      "constant": true
    },
    {
      "inputs": [
        {
          "internalType": "address",
          "name": "spender",
          "type": "address"
        },
        {
          "internalType": "uint256",
          "name": "value",
          "type": "uint256"
        }
      ],
      "name": "approve",
      "outputs": [
        {
          "internalType": "bool",
          "name": "",
          "type": "bool"
        }
      ],
      "stateMutability": "nonpayable",
      "type": "function"
    },
    {
      "inputs": [
        {
          "internalType": "address",
          "name": "account",
          "type": "address"
        }
      ],
      "name": "balanceOf",
      "outputs": [
        {
          "internalType": "uint256",
          "name": "",
          "type": "uint256"
        }
      ],
      "stateMutability": "view",
      "type": "function",
      "constant": true
    },
    {
      "inputs": [
        {
          "internalType": "uint256",
          "name": "value",
          "type": "uint256"
        }
      ],
      "name": "burn",
      "outputs": [],
      "stateMutability": "nonpayable",
      "type": "function"
    },
    {
      "inputs": [
        {
          "internalType": "address",
          "name": "account",
          "type": "address"
        },
        {
          "internalType": "uint256",
          "name": "value",
          "type": "uint256"
        }
      ],
      "name": "burnFrom",
      "outputs": [],
      "stateMutability": "nonpayable",
      "type": "function"
    },
    {
      "inputs": [],
      "name": "decimals",
      "outputs": [
        {
          "internalType": "uint8",
          "name": "",
          "type": "uint8"
        }
      ],
      "stateMutability": "view",
      "type": "function",
      "constant": true
    },
    {
      "inputs": [
        {
          "internalType": "bytes32",
          "name": "commandId",
          "type": "bytes32"
        },
        {
          "internalType": "string",
          "name": "sourceChain",
          "type": "string"
        },
        {
          "internalType": "string",
          "name": "sourceAddress",
          "type": "string"
        },
        {
          "internalType": "bytes",
          "name": "payload",
          "type": "bytes"
        }
      ],
      "name": "execute",
      "outputs": [],
      "stateMutability": "nonpayable",
      "type": "function"
    },
    {
      "inputs": [],
      "name": "gateway",
      "outputs": [
        {
          "internalType": "contract IAxelarGateway",
          "name": "",
          "type": "address"
        }
      ],
      "stateMutability": "view",
      "type": "function",
      "constant": true
    },
    {
      "inputs": [],
      "name": "name",
      "outputs": [
        {
          "internalType": "string",
          "name": "",
          "type": "string"
        }
      ],
      "stateMutability": "view",
      "type": "function",
      "constant": true
    },
    {
      "inputs": [],
      "name": "symbol",
      "outputs": [
        {
          "internalType": "string",
          "name": "",
          "type": "string"
        }
      ],
      "stateMutability": "view",
      "type": "function",
      "constant": true
    },
    {
      "inputs": [],
      "name": "totalSupply",
      "outputs": [
        {
          "internalType": "uint256",
          "name": "",
          "type": "uint256"
        }
      ],
      "stateMutability": "view",
      "type": "function",
      "constant": true
    },
    {
      "inputs": [
        {
          "internalType": "address",
          "name": "to",
          "type": "address"
        },
        {
          "internalType": "uint256",
          "name": "value",
          "type": "uint256"
        }
      ],
      "name": "transfer",
      "outputs": [
        {
          "internalType": "bool",
          "name": "",
          "type": "bool"
        }
      ],
      "stateMutability": "nonpayable",
      "type": "function"
    },
    {
      "inputs": [
        {
          "internalType": "address",
          "name": "from",
          "type": "address"
        },
        {
          "internalType": "address",
          "name": "to",
          "type": "address"
        },
        {
          "internalType": "uint256",
          "name": "value",
          "type": "uint256"
        }
      ],
      "name": "transferFrom",
      "outputs": [
        {
          "internalType": "bool",
          "name": "",
          "type": "bool"
        }
      ],
      "stateMutability": "nonpayable",
      "type": "function"
    },
    {
      "stateMutability": "payable",
      "type": "receive",
      "payable": true
    },
    {
      "inputs": [
        {
          "internalType": "uint256",
          "name": "amount",
          "type": "uint256"
        }
      ],
      "name": "burnTokens",
      "outputs": [],
      "stateMutability": "nonpayable",
      "type": "function"
    }
  ],
  "bytecode": "0x60a060405234801562000010575f80fd5b5060405162001f5a38038062001f5a8339818101604052810190620000369190620004c9565b6040518060400160405280600c81526020017f57617264656e546f6b656e7300000000000000000000000000000000000000008152506040518060400160405280600281526020017f414d000000000000000000000000000000000000000000000000000000000000815250835f73ffffffffffffffffffffffffffffffffffffffff168173ffffffffffffffffffffffffffffffffffffffff160362000109576040517fe6c4247b00000000000000000000000000000000000000000000000000000000815260040160405180910390fd5b8073ffffffffffffffffffffffffffffffffffffffff1660808173ffffffffffffffffffffffffffffffffffffffff16815250505081600390816200014f919062000769565b50806004908162000161919062000769565b5050506200017630826200017e60201b60201c565b505062000947565b5f73ffffffffffffffffffffffffffffffffffffffff168273ffffffffffffffffffffffffffffffffffffffff1603620001f1575f6040517fec442f05000000000000000000000000000000000000000000000000000000008152600401620001e891906200085e565b60405180910390fd5b620002045f83836200020860201b60201c565b5050565b5f73ffffffffffffffffffffffffffffffffffffffff168373ffffffffffffffffffffffffffffffffffffffff16036200025c578060025f8282546200024f9190620008a6565b925050819055506200032d565b5f805f8573ffffffffffffffffffffffffffffffffffffffff1673ffffffffffffffffffffffffffffffffffffffff1681526020019081526020015f2054905081811015620002e8578381836040517fe450d38c000000000000000000000000000000000000000000000000000000008152600401620002df93929190620008f1565b60405180910390fd5b8181035f808673ffffffffffffffffffffffffffffffffffffffff1673ffffffffffffffffffffffffffffffffffffffff1681526020019081526020015f2081905550505b5f73ffffffffffffffffffffffffffffffffffffffff168273ffffffffffffffffffffffffffffffffffffffff160362000376578060025f8282540392505081905550620003c0565b805f808473ffffffffffffffffffffffffffffffffffffffff1673ffffffffffffffffffffffffffffffffffffffff1681526020019081526020015f205f82825401925050819055505b8173ffffffffffffffffffffffffffffffffffffffff168373ffffffffffffffffffffffffffffffffffffffff167fddf252ad1be2c89b69c2b068fc378daa952ba7f163c4a11628f55a4df523b3ef836040516200041f91906200092c565b60405180910390a3505050565b5f80fd5b5f73ffffffffffffffffffffffffffffffffffffffff82169050919050565b5f6200045b8262000430565b9050919050565b6200046d816200044f565b811462000478575f80fd5b50565b5f815190506200048b8162000462565b92915050565b5f819050919050565b620004a58162000491565b8114620004b0575f80fd5b50565b5f81519050620004c3816200049a565b92915050565b5f8060408385031215620004e257620004e16200042c565b5b5f620004f1858286016200047b565b92505060206200050485828601620004b3565b9150509250929050565b5f81519050919050565b7f4e487b71000000000000000000000000000000000000000000000000000000005f52604160045260245ffd5b7f4e487b71000000000000000000000000000000000000000000000000000000005f52602260045260245ffd5b5f60028204905060018216806200058a57607f821691505b602082108103620005a0576200059f62000545565b5b50919050565b5f819050815f5260205f209050919050565b5f6020601f8301049050919050565b5f82821b905092915050565b5f60088302620006047fffffffffffffffffffffffffffffffffffffffffffffffffffffffffffffffff82620005c7565b620006108683620005c7565b95508019841693508086168417925050509392505050565b5f819050919050565b5f620006516200064b620006458462000491565b62000628565b62000491565b9050919050565b5f819050919050565b6200066c8362000631565b620006846200067b8262000658565b848454620005d3565b825550505050565b5f90565b6200069a6200068c565b620006a781848462000661565b505050565b5b81811015620006ce57620006c25f8262000690565b600181019050620006ad565b5050565b601f8211156200071d57620006e781620005a6565b620006f284620005b8565b8101602085101562000702578190505b6200071a6200071185620005b8565b830182620006ac565b50505b505050565b5f82821c905092915050565b5f6200073f5f198460080262000722565b1980831691505092915050565b5f6200075983836200072e565b9150826002028217905092915050565b62000774826200050e565b67ffffffffffffffff81111562000790576200078f62000518565b5b6200079c825462000572565b620007a9828285620006d2565b5f60209050601f831160018114620007df575f8415620007ca578287015190505b620007d685826200074c565b86555062000845565b601f198416620007ef86620005a6565b5f5b828110156200081857848901518255600182019150602085019450602081019050620007f1565b8683101562000838578489015162000834601f8916826200072e565b8355505b6001600288020188555050505b505050505050565b62000858816200044f565b82525050565b5f602082019050620008735f8301846200084d565b92915050565b7f4e487b71000000000000000000000000000000000000000000000000000000005f52601160045260245ffd5b5f620008b28262000491565b9150620008bf8362000491565b9250828201905080821115620008da57620008d962000879565b5b92915050565b620008eb8162000491565b82525050565b5f606082019050620009065f8301866200084d565b620009156020830185620008e0565b620009246040830184620008e0565b949350505050565b5f602082019050620009415f830184620008e0565b92915050565b6080516115fa620009605f395f61043e01526115fa5ff3fe6080604052600436106100e0575f3560e01c8063491606581161007e57806379cc67901161005857806379cc6790146102bf57806395d89b41146102e7578063a9059cbb14610311578063dd62ed3e1461034d576100e7565b806349160658146102335780636d1b229d1461025b57806370a0823114610283576100e7565b806318160ddd116100ba57806318160ddd1461017b57806323b872dd146101a5578063313ce567146101e157806342966c681461020b576100e7565b806306fdde03146100eb578063095ea7b314610115578063116191b614610151576100e7565b366100e757005b5f80fd5b3480156100f6575f80fd5b506100ff610389565b60405161010c9190610e82565b60405180910390f35b348015610120575f80fd5b5061013b60048036038101906101369190610f37565b610419565b6040516101489190610f8f565b60405180910390f35b34801561015c575f80fd5b5061016561043b565b6040516101729190611003565b60405180910390f35b348015610186575f80fd5b5061018f610462565b60405161019c919061102b565b60405180910390f35b3480156101b0575f80fd5b506101cb60048036038101906101c69190611044565b61046b565b6040516101d89190610f8f565b60405180910390f35b3480156101ec575f80fd5b506101f5610499565b60405161020291906110af565b60405180910390f35b348015610216575f80fd5b50610231600480360381019061022c91906110c8565b6104a1565b005b34801561023e575f80fd5b50610259600480360381019061025491906111dc565b6104b5565b005b348015610266575f80fd5b50610281600480360381019061027c91906110c8565b6105a9565b005b34801561028e575f80fd5b506102a960048036038101906102a491906112a0565b610638565b6040516102b6919061102b565b60405180910390f35b3480156102ca575f80fd5b506102e560048036038101906102e09190610f37565b61067d565b005b3480156102f2575f80fd5b506102fb61069d565b6040516103089190610e82565b60405180910390f35b34801561031c575f80fd5b5061033760048036038101906103329190610f37565b61072d565b6040516103449190610f8f565b60405180910390f35b348015610358575f80fd5b50610373600480360381019061036e91906112cb565b61074f565b604051610380919061102b565b60405180910390f35b60606003805461039890611336565b80601f01602080910402602001604051908101604052809291908181526020018280546103c490611336565b801561040f5780601f106103e65761010080835404028352916020019161040f565b820191905f5260205f20905b8154815290600101906020018083116103f257829003601f168201915b5050505050905090565b5f806104236107d1565b90506104308185856107d8565b600191505092915050565b5f7f0000000000000000000000000000000000000000000000000000000000000000905090565b5f600254905090565b5f806104756107d1565b90506104828582856107ea565b61048d85858561087c565b60019150509392505050565b5f6012905090565b6104b26104ac6107d1565b8261096c565b50565b5f82826040516104c69291906113a2565b604051809103902090506104d861043b565b73ffffffffffffffffffffffffffffffffffffffff16635f6970c38989898989876040518763ffffffff1660e01b815260040161051a969594939291906113f5565b6020604051808303815f875af1158015610536573d5f803e3d5ffd5b505050506040513d601f19601f8201168201806040525081019061055a9190611474565b610590576040517f500c44b400000000000000000000000000000000000000000000000000000000815260040160405180910390fd5b61059f888888888888886109eb565b5050505050505050565b806105b330610638565b10156105f4576040517f08c379a00000000000000000000000000000000000000000000000000000000081526004016105eb906114e9565b60405180910390fd5b6105fe308261096c565b7f6ef4855b666dcc7884561072e4358b28dfe01feb1b7f4dcebc00e62d50394ac78160405161062d919061102b565b60405180910390a150565b5f805f8373ffffffffffffffffffffffffffffffffffffffff1673ffffffffffffffffffffffffffffffffffffffff1681526020019081526020015f20549050919050565b61068f826106896107d1565b836107ea565b610699828261096c565b5050565b6060600480546106ac90611336565b80601f01602080910402602001604051908101604052809291908181526020018280546106d890611336565b80156107235780601f106106fa57610100808354040283529160200191610723565b820191905f5260205f20905b81548152906001019060200180831161070657829003601f168201915b5050505050905090565b5f806107376107d1565b905061074481858561087c565b600191505092915050565b5f60015f8473ffffffffffffffffffffffffffffffffffffffff1673ffffffffffffffffffffffffffffffffffffffff1681526020019081526020015f205f8373ffffffffffffffffffffffffffffffffffffffff1673ffffffffffffffffffffffffffffffffffffffff1681526020019081526020015f2054905092915050565b5f33905090565b6107e58383836001610a10565b505050565b5f6107f5848461074f565b90507fffffffffffffffffffffffffffffffffffffffffffffffffffffffffffffffff81146108765781811015610867578281836040517ffb8f41b200000000000000000000000000000000000000000000000000000000815260040161085e93929190611516565b60405180910390fd5b61087584848484035f610a10565b5b50505050565b5f73ffffffffffffffffffffffffffffffffffffffff168373ffffffffffffffffffffffffffffffffffffffff16036108ec575f6040517f96c6fd1e0000000000000000000000000000000000000000000000000000000081526004016108e3919061154b565b60405180910390fd5b5f73ffffffffffffffffffffffffffffffffffffffff168273ffffffffffffffffffffffffffffffffffffffff160361095c575f6040517fec442f05000000000000000000000000000000000000000000000000000000008152600401610953919061154b565b60405180910390fd5b610967838383610bdf565b505050565b5f73ffffffffffffffffffffffffffffffffffffffff168273ffffffffffffffffffffffffffffffffffffffff16036109dc575f6040517f96c6fd1e0000000000000000000000000000000000000000000000000000000081526004016109d3919061154b565b60405180910390fd5b6109e7825f83610bdf565b5050565b5f82828101906109fb91906110c8565b9050610a06816105a9565b5050505050505050565b5f73ffffffffffffffffffffffffffffffffffffffff168473ffffffffffffffffffffffffffffffffffffffff1603610a80575f6040517fe602df05000000000000000000000000000000000000000000000000000000008152600401610a77919061154b565b60405180910390fd5b5f73ffffffffffffffffffffffffffffffffffffffff168373ffffffffffffffffffffffffffffffffffffffff1603610af0575f6040517f94280d62000000000000000000000000000000000000000000000000000000008152600401610ae7919061154b565b60405180910390fd5b8160015f8673ffffffffffffffffffffffffffffffffffffffff1673ffffffffffffffffffffffffffffffffffffffff1681526020019081526020015f205f8573ffffffffffffffffffffffffffffffffffffffff1673ffffffffffffffffffffffffffffffffffffffff1681526020019081526020015f20819055508015610bd9578273ffffffffffffffffffffffffffffffffffffffff168473ffffffffffffffffffffffffffffffffffffffff167f8c5be1e5ebec7d5bd14f71427d1e84f3dd0314c0f7b2291e5b200ac8c7c3b92584604051610bd0919061102b565b60405180910390a35b50505050565b5f73ffffffffffffffffffffffffffffffffffffffff168373ffffffffffffffffffffffffffffffffffffffff1603610c2f578060025f828254610c239190611591565b92505081905550610cfd565b5f805f8573ffffffffffffffffffffffffffffffffffffffff1673ffffffffffffffffffffffffffffffffffffffff1681526020019081526020015f2054905081811015610cb8578381836040517fe450d38c000000000000000000000000000000000000000000000000000000008152600401610caf93929190611516565b60405180910390fd5b8181035f808673ffffffffffffffffffffffffffffffffffffffff1673ffffffffffffffffffffffffffffffffffffffff1681526020019081526020015f2081905550505b5f73ffffffffffffffffffffffffffffffffffffffff168273ffffffffffffffffffffffffffffffffffffffff1603610d44578060025f8282540392505081905550610d8e565b805f808473ffffffffffffffffffffffffffffffffffffffff1673ffffffffffffffffffffffffffffffffffffffff1681526020019081526020015f205f82825401925050819055505b8173ffffffffffffffffffffffffffffffffffffffff168373ffffffffffffffffffffffffffffffffffffffff167fddf252ad1be2c89b69c2b068fc378daa952ba7f163c4a11628f55a4df523b3ef83604051610deb919061102b565b60405180910390a3505050565b5f81519050919050565b5f82825260208201905092915050565b5f5b83811015610e2f578082015181840152602081019050610e14565b5f8484015250505050565b5f601f19601f8301169050919050565b5f610e5482610df8565b610e5e8185610e02565b9350610e6e818560208601610e12565b610e7781610e3a565b840191505092915050565b5f6020820190508181035f830152610e9a8184610e4a565b905092915050565b5f80fd5b5f80fd5b5f73ffffffffffffffffffffffffffffffffffffffff82169050919050565b5f610ed382610eaa565b9050919050565b610ee381610ec9565b8114610eed575f80fd5b50565b5f81359050610efe81610eda565b92915050565b5f819050919050565b610f1681610f04565b8114610f20575f80fd5b50565b5f81359050610f3181610f0d565b92915050565b5f8060408385031215610f4d57610f4c610ea2565b5b5f610f5a85828601610ef0565b9250506020610f6b85828601610f23565b9150509250929050565b5f8115159050919050565b610f8981610f75565b82525050565b5f602082019050610fa25f830184610f80565b92915050565b5f819050919050565b5f610fcb610fc6610fc184610eaa565b610fa8565b610eaa565b9050919050565b5f610fdc82610fb1565b9050919050565b5f610fed82610fd2565b9050919050565b610ffd81610fe3565b82525050565b5f6020820190506110165f830184610ff4565b92915050565b61102581610f04565b82525050565b5f60208201905061103e5f83018461101c565b92915050565b5f805f6060848603121561105b5761105a610ea2565b5b5f61106886828701610ef0565b935050602061107986828701610ef0565b925050604061108a86828701610f23565b9150509250925092565b5f60ff82169050919050565b6110a981611094565b82525050565b5f6020820190506110c25f8301846110a0565b92915050565b5f602082840312156110dd576110dc610ea2565b5b5f6110ea84828501610f23565b91505092915050565b5f819050919050565b611105816110f3565b811461110f575f80fd5b50565b5f81359050611120816110fc565b92915050565b5f80fd5b5f80fd5b5f80fd5b5f8083601f84011261114757611146611126565b5b8235905067ffffffffffffffff8111156111645761116361112a565b5b6020830191508360018202830111156111805761117f61112e565b5b9250929050565b5f8083601f84011261119c5761119b611126565b5b8235905067ffffffffffffffff8111156111b9576111b861112a565b5b6020830191508360018202830111156111d5576111d461112e565b5b9250929050565b5f805f805f805f6080888a0312156111f7576111f6610ea2565b5b5f6112048a828b01611112565b975050602088013567ffffffffffffffff81111561122557611224610ea6565b5b6112318a828b01611132565b9650965050604088013567ffffffffffffffff81111561125457611253610ea6565b5b6112608a828b01611132565b9450945050606088013567ffffffffffffffff81111561128357611282610ea6565b5b61128f8a828b01611187565b925092505092959891949750929550565b5f602082840312156112b5576112b4610ea2565b5b5f6112c284828501610ef0565b91505092915050565b5f80604083850312156112e1576112e0610ea2565b5b5f6112ee85828601610ef0565b92505060206112ff85828601610ef0565b9150509250929050565b7f4e487b71000000000000000000000000000000000000000000000000000000005f52602260045260245ffd5b5f600282049050600182168061134d57607f821691505b6020821081036113605761135f611309565b5b50919050565b5f81905092915050565b828183375f83830152505050565b5f6113898385611366565b9350611396838584611370565b82840190509392505050565b5f6113ae82848661137e565b91508190509392505050565b6113c3816110f3565b82525050565b5f6113d48385610e02565b93506113e1838584611370565b6113ea83610e3a565b840190509392505050565b5f6080820190506114085f8301896113ba565b818103602083015261141b8187896113c9565b905081810360408301526114308185876113c9565b905061143f60608301846113ba565b979650505050505050565b61145381610f75565b811461145d575f80fd5b50565b5f8151905061146e8161144a565b92915050565b5f6020828403121561148957611488610ea2565b5b5f61149684828501611460565b91505092915050565b7f496e73756666696369656e742062616c616e636520746f206275726e000000005f82015250565b5f6114d3601c83610e02565b91506114de8261149f565b602082019050919050565b5f6020820190508181035f830152611500816114c7565b9050919050565b61151081610ec9565b82525050565b5f6060820190506115295f830186611507565b611536602083018561101c565b611543604083018461101c565b949350505050565b5f60208201905061155e5f830184611507565b92915050565b7f4e487b71000000000000000000000000000000000000000000000000000000005f52601160045260245ffd5b5f61159b82610f04565b91506115a683610f04565b92508282019050808211156115be576115bd611564565b5b9291505056fea26469706673582212209add423aab495f3d6ae438add84a54cebb5855bd952dcd3385f56b3dcc06f96864736f6c63430008140033",
  "immutableReferences": {
    "11": [
      {
        "length": 32,
        "start": 1086
      }
    ]
  },
  "source": "\r\n    // SPDX-License-Identifier: MIT\r\npragma solidity ^0.8.20;\r\n\r\nimport \"@axelar-network/axelar-gmp-sdk-solidity/contracts/executable/AxelarExecutable.sol\";\r\nimport \"@axelar-network/axelar-gmp-sdk-solidity/contracts/interfaces/IAxelarGateway.sol\";\r\nimport \"@openzeppelin/contracts/token/ERC20/ERC20.sol\";\r\nimport \"@openzeppelin/contracts/token/ERC20/extensions/ERC20Burnable.sol\";\r\n\r\n/**\r\n * @title BurnableToken\r\n * @dev An ERC20 token that can be burned through cross-chain messages using Axelar\r\n */\r\n contract  BurnableToken is AxelarExecutable, ERC20Burnable{\r\n    // An event emitted when tokens are burned\r\n    event TokensBurned(uint256 amount);\r\n\r\n    /**\r\n     * @dev A constructor that mints an initial supply of tokens to the contract\r\n     * @param gateway_ The address of the Axelar gateway contract\r\n     * @param initialSupply The initial supply of tokens to mint\r\n     */\r\n    constructor(address gateway_, uint256 initialSupply) \r\n        AxelarExecutable(gateway_) \r\n        ERC20(\"WardenTokens\", \"AM\") \r\n    {\r\n        _mint(address(this), initialSupply);\r\n    }\r\n\r\n    /**\r\n     * @dev Handles cross-chain messages received through Axelar\r\n     * @param sourceChain The name of the source chain\r\n     * @param sourceAddress The address of the source contract on the source chain\r\n     * @param payload The payload sent from the source chain (the amount to burn)\r\n     */\r\n    function _execute(\r\n    bytes32 commandId,\r\n    string calldata sourceChain,\r\n    string calldata sourceAddress,\r\n    bytes calldata payload\r\n) internal override {\r\n    uint256 amountToBurn = abi.decode(payload, (uint256));\r\n    burnTokens(amountToBurn);\r\n}\r\n\r\n\r\n    /**\r\n     * @dev Burns a specified amount of tokens from the contract's balance\r\n     * @param amount The amount of tokens to burn\r\n     */\r\n    function burnTokens(uint256 amount) public {\r\n        require(balanceOf(address(this)) >= amount, \"Insufficient balance to burn\");\r\n        _burn(address(this), amount);\r\n        emit TokensBurned(amount);\r\n    }\r\n\r\n    // Allows the contract to receive native currency  for example, ETH\r\n    receive() external payable {}\r\n}\r\n",
  "sourcePath": "C:\\Users\\user\\Desktop\\Warden\\burnable-token\\contracts\\BurnableToken.sol",
  "compiler": {
    "name": "solc",
    "version": "0.8.20+commit.a1b79de6.Emscripten.clang"
  },
  "schemaVersion": "3.4.16",
  "updatedAt": "2024-11-13T15:01:00.415Z",
  "networkType": "ethereum",
  "devdoc": {
    "details": "An ERC20 token that can be burned through cross-chain messages using Axelar",
    "errors": {
      "ERC20InsufficientAllowance(address,uint256,uint256)": [
        {
          "details": "Indicates a failure with the `spender`s `allowance`. Used in transfers.",
          "params": {
            "allowance": "Amount of tokens a `spender` is allowed to operate with.",
            "needed": "Minimum amount required to perform a transfer.",
            "spender": "Address that may be allowed to operate on tokens without being their owner."
          }
        }
      ],
      "ERC20InsufficientBalance(address,uint256,uint256)": [
        {
          "details": "Indicates an error related to the current `balance` of a `sender`. Used in transfers.",
          "params": {
            "balance": "Current balance for the interacting account.",
            "needed": "Minimum amount required to perform a transfer.",
            "sender": "Address whose tokens are being transferred."
          }
        }
      ],
      "ERC20InvalidApprover(address)": [
        {
          "details": "Indicates a failure with the `approver` of a token to be approved. Used in approvals.",
          "params": {
            "approver": "Address initiating an approval operation."
          }
        }
      ],
      "ERC20InvalidReceiver(address)": [
        {
          "details": "Indicates a failure with the token `receiver`. Used in transfers.",
          "params": {
            "receiver": "Address to which tokens are being transferred."
          }
        }
      ],
      "ERC20InvalidSender(address)": [
        {
          "details": "Indicates a failure with the token `sender`. Used in transfers.",
          "params": {
            "sender": "Address whose tokens are being transferred."
          }
        }
      ],
      "ERC20InvalidSpender(address)": [
        {
          "details": "Indicates a failure with the `spender` to be approved. Used in approvals.",
          "params": {
            "spender": "Address that may be allowed to operate on tokens without being their owner."
          }
        }
      ],
      "InvalidAddress()": [
        {
          "details": "Thrown when a function is called with an invalid address."
        }
      ],
      "NotApprovedByGateway()": [
        {
          "details": "Thrown when the call is not approved by the Axelar Gateway."
        }
      ]
    },
    "events": {
      "Approval(address,address,uint256)": {
        "details": "Emitted when the allowance of a `spender` for an `owner` is set by a call to {approve}. `value` is the new allowance."
      },
      "Transfer(address,address,uint256)": {
        "details": "Emitted when `value` tokens are moved from one account (`from`) to another (`to`). Note that `value` may be zero."
      }
    },
    "kind": "dev",
    "methods": {
      "allowance(address,address)": {
        "details": "See {IERC20-allowance}."
      },
      "approve(address,uint256)": {
        "details": "See {IERC20-approve}. NOTE: If `value` is the maximum `uint256`, the allowance is not updated on `transferFrom`. This is semantically equivalent to an infinite approval. Requirements: - `spender` cannot be the zero address."
      },
      "balanceOf(address)": {
        "details": "See {IERC20-balanceOf}."
      },
      "burn(uint256)": {
        "details": "Destroys a `value` amount of tokens from the caller. See {ERC20-_burn}."
      },
      "burnFrom(address,uint256)": {
        "details": "Destroys a `value` amount of tokens from `account`, deducting from the caller's allowance. See {ERC20-_burn} and {ERC20-allowance}. Requirements: - the caller must have allowance for ``accounts``'s tokens of at least `value`."
      },
      "burnTokens(uint256)": {
        "details": "Burns a specified amount of tokens from the contract's balance",
        "params": {
          "amount": "The amount of tokens to burn"
        }
      },
      "constructor": {
        "details": "A constructor that mints an initial supply of tokens to the contract",
        "params": {
          "gateway_": "The address of the Axelar gateway contract",
          "initialSupply": "The initial supply of tokens to mint"
        }
      },
      "decimals()": {
        "details": "Returns the number of decimals used to get its user representation. For example, if `decimals` equals `2`, a balance of `505` tokens should be displayed to a user as `5.05` (`505 / 10 ** 2`). Tokens usually opt for a value of 18, imitating the relationship between Ether and Wei. This is the default value returned by this function, unless it's overridden. NOTE: This information is only used for _display_ purposes: it in no way affects any of the arithmetic of the contract, including {IERC20-balanceOf} and {IERC20-transfer}."
      },
      "execute(bytes32,string,string,bytes)": {
        "details": "This function ensures the call is approved by Axelar Gateway before execution. It uses a hash of the payload for validation and internally calls _execute for the actual command execution. Reverts if the validation fails.",
        "params": {
          "commandId": "The unique identifier of the cross-chain message being executed.",
          "payload": "The payload of the message payload.",
          "sourceAddress": "The address on the source chain that sent the message.",
          "sourceChain": "The name of the source chain from which the message originated."
        }
      },
      "gateway()": {
        "returns": {
          "_0": "The Axelar Gateway instance."
        }
      },
      "name()": {
        "details": "Returns the name of the token."
      },
      "symbol()": {
        "details": "Returns the symbol of the token, usually a shorter version of the name."
      },
      "totalSupply()": {
        "details": "See {IERC20-totalSupply}."
      },
      "transfer(address,uint256)": {
        "details": "See {IERC20-transfer}. Requirements: - `to` cannot be the zero address. - the caller must have a balance of at least `value`."
      },
      "transferFrom(address,address,uint256)": {
        "details": "See {IERC20-transferFrom}. Skips emitting an {Approval} event indicating an allowance update. This is not required by the ERC. See {xref-ERC20-_approve-address-address-uint256-bool-}[_approve]. NOTE: Does not update the allowance if the current allowance is the maximum `uint256`. Requirements: - `from` and `to` cannot be the zero address. - `from` must have a balance of at least `value`. - the caller must have allowance for ``from``'s tokens of at least `value`."
      }
    },
    "title": "BurnableToken",
    "version": 1
  },
  "userdoc": {
    "kind": "user",
    "methods": {
      "execute(bytes32,string,string,bytes)": {
        "notice": "Executes the cross-chain command after validating it with the Axelar Gateway."
      },
      "gateway()": {
        "notice": "Returns the address of the AxelarGateway contract."
      }
    },
    "version": 1
  }
}